:020000040000FA
:100000000C946E010C949F010C949F010C949F0121
:100010000C949F010C949F010C949F010C949F01E0
:100020000C949F010C949F010C949F010C949F01D0
:100030000C949F010C94560A0C949F010C949F0100
:100040000C949F010C949F010C949F010C949F01B0
:100050000C949F010C949F010C949F010C94160B1F
:100060000C949F010C94E00A0C94B60A0C949F0126
:100070000C949F010C949F010C949F010C949F0180
:100080000C949F010C949F010C949F010C949F0170
:100090000C949F010C949F010C949F010C94600B95
:1000A0000C949F010C949F010C949F010C949F0150
:1000B0000C949F010C949F010C949F010C949F0140
:1000C0000C949F010C949F010C949F010C949F0130
:1000D0000C949F010C949F010C949F010C949F0120
:1000E0000C949F010C94E8050C94F3010C94010608
:1000F0000C948A090C945C060C944E070C944B03E8
:100100000C942A030C94A3010C94A1010C945E0797
:100110000C9478070C942D030C9471070C944F07E2
:100120000C94ED050C9459030C947A060C942F064C
:100130000C9448060C941B060C944F030C948602F6
:100140000C940B060C945D030C9470060C94410304
:100150000C9422030C9407030C9413060C94F705DB
:100160000C9437030C9453030C94D0010C94660642
:100170000C940C030C94BC080C9401020C94BB0866
:100180000C943D030C9426030C9439020C94E00566
:100190000C94DF010C94A5070C9439060C945206BC
:1001A0000C941E030C94C90C0C9425060C94A2010B
:1001B0000C9445030C943303000021002400270015
:1001C0002A002D0030003300010100000401070166
:1001D0000A0100000A0B02090C0D0E0807030401B6
:1001E000000000000000000000000000000000000F
:1001F00000000000000000000000000000001211DC
:1002000010000000000000000000000000000000DE
:100210000000000000000000000020002300260075
:1002200029002C002F00320000010000030106010C
:1002300009010102102020080810204010204080F1
:10024000020102010804020101020408102040809A
:100250008040201008040201800402018040201028
:100260000804020108040201010204081020408071
:100270000102040810204080000022002500280010
:100280002B002E003100340002010000050108019E
:100290000B0105050505070508080808020202020A
:1002A0000A0A080804040404010101010101010112
:1002B0000303030303030303040707070C0C0C0CDD
:1002C0000C0C0C0C020202020606060606060606C6
:1002D0000B0B0B0B0B0B0B0B0200C90C11241FBEDD
:1002E000CFEFD1E2DEBFCDBF00E00CBF12E0A0E057
:1002F000B2E0E6EFF0E200E00BBF02C007900D9223
:10030000A236B107D9F723E0A2E6B2E001C01D9200
:10031000AE3FB207E1F711E0CEE6D1E000E006C063
:1003200021970109802FFE010E947110CD36D1075F
:1003300080E00807A9F70E94110D0C9479100C9425
:10034000000008950895AF92BF92CF92DF92EF928E
:10035000FF920F931F93CF93DF936C017B018B016F
:10036000040F151FEB015E01AE18BF08C017D107BF
:1003700059F06991D601ED91FC910190F081E02D49
:10038000C6011995892B79F7C501DF91CF911F918E
:100390000F91FF90EF90DF90CF90BF90AF900895B6
:1003A000FC01538D448D252F30E0842F90E0821B7B
:1003B000930B541710F0CF96089501970895FC0100
:1003C000918D828D981761F0A28DAE0FBF2FB11D58
:1003D0005D968C91928D9F5F9F73928F90E00895B0
:1003E0008FEF9FEF0895FC01918D828D981731F06A
:1003F000828DE80FF11D858D90E008958FEF9FEFBE
:100400000895FC01918D228D892F90E0805C9F4F93
:10041000821B91098F739927089589E493E00E94C4
:10042000010221E0892B09F420E0822F0895FC01CC
:10043000A48DA80FB92FB11DA35ABF4F2C91848D45
:1004400090E001968F739927848FA689B7892C93A2
:10045000A089B1898C91837080648C93938D848DF5
:10046000981306C00288F389E02D80818F7D8083F8
:100470000895EF92FF920F931F93CF93DF93EC01B8
:1004800081E0888F9B8D8C8D98131AC0E889F9893B
:10049000808185FF15C09FB7F894EE89FF8960833E
:1004A000E889F98980818370806480839FBF81E0BF
:1004B00090E0DF91CF911F910F91FF90EF90089501
:1004C000F62E0B8D10E00F5F1F4F0F731127E02EDC
:1004D0008C8D8E110CC00FB607FCFACFE889F98914
:1004E000808185FFF5CFCE010E941702F1CFEB8D01
:1004F000EC0FFD2FF11DE35AFF4FF0829FB7F894E8
:100500000B8FEA89FB8980818062CFCFCF93DF9305
:10051000EC01888D8823B9F0AA89BB89E889F9891B
:100520008C9185FD03C0808186FD0DC00FB607FC50
:10053000F7CF8C9185FFF2CF808185FFEDCFCE0183
:100540000E941702E9CFDF91CF91089580E090E0FB
:10055000892B29F00E940D0281110E94000080E089
:1005600090E0892B49F080E090E0892B29F00E94EF
:10057000000081110E94000080E090E0892B49F08A
:1005800080E090E0892B29F00E94000081110E94F8
:10059000000080E090E0892B49F080E090E0892B1A
:1005A00029F00E94000081110C9400000895282F6A
:1005B00030E0F901EE52FE4F9491F901EE5CFD4FEF
:1005C00044912E563D4FF9012491222309F435C060
:1005D000992311F191509231F8F4E92FF0E0882736
:1005E000EB50FD4F8F4F0C94711026032A03070325
:1005F0001E0322030C032D03330337033D03410382
:1006000045034B034F030C03530359035D038091D0
:1006100080008F7780938000E22FF0E0EE0FFF1FC5
:10062000E858FD4FA591B4918FB7F894EC91611102
:1006300048C040954E234C938FBF08958091800011
:100640008F7DE8CF80918000877FE4CF84B58F775E
:1006500084BDE2CF84B58F7DFBCF8091B0008F77D2
:100660008093B000D9CF8091B0008F7DF9CF809179
:1006700090008F7780939000CFCF809190008F7DF6
:10068000F9CF80919000877FF5CF8091A0008F7780
:100690008093A000C1CF8091A0008F7DF9CF809181
:1006A000A000877FF5CF809120018F778093200174
:1006B000B3CF809120018F7DF9CF80912001877F7A
:1006C000F5CF4E2BB8CF9091000289130DC0E8ED05
:1006D000F2E0E4919FEF90930002E230E1F038F411
:1006E000EE2381F0E13089F060E00C94D702E43031
:1006F00049F110F1E530C1F7909173009D7F90931F
:100700007300F2CF10926E00EFCF90916F009D7F3B
:1007100090936F00E9CF909170009D7F909370004F
:1007200091E09093B0009091B100987F9460909385
:10073000B1001092B300D8CF909171009D7F90933B
:100740007100D2CF909172009D7F90937200CCCFB8
:10075000CF93DF9390E0FC01EE5CFD4F24918E5629
:100760009D4FFC0184918823D1F090E0880F991F60
:10077000FC01E854FE4FA591B491FC01E858FD4FEF
:10078000C591D49161110EC09FB7F8948C91E22F5E
:10079000E0958E238C932881E223E8839FBFDF912D
:1007A000CF9108958FB7F894EC91E22BEC938FBF23
:1007B000F6CF0F931F93CF938C01809100028B3360
:1007C00031F08F3FA1F1CF911F910F910895E8ED86
:1007D000F2E0C491C7FDF7CF61E08BE30E94A8036C
:1007E000C1113FC0980150E040E068E478EE81E03C
:1007F00090E00E945210BA01A901415051096109CB
:10080000710985B5887F836085BD47BD8FEF9FEFF8
:10081000DC018093450390934603A0934703B09374
:10082000480380916E00826080936E00CCCF8BE392
:1008300080930002E8EDF2E0C4918C2FCF3F09F4E1
:10084000C2CFC23009F493C0B8F5CC2309F459C023
:10085000C13009F46EC087FDB6CF61E08BE30E9422
:10086000A803980150E040E0C23009F0DFC060E921
:1008700070ED83E090E00E945210BA01A90141504E
:100880005109610971098091B100887F836080936B
:10089000B1004093B3008FEF9FEFDC0180933D03E5
:1008A00090933E03A0933F03B09340038091700068
:1008B00082608093700087CFC43009F499C008F437
:1008C00078C0C53041F6109220011092210180912C
:1008D00021018860809321018091210181608093B2
:1008E0002101EDECF2E0E491F0E0EE0FFF1FE8589B
:1008F000FD4F85919491EDE6F2E0E491E0932903B8
:100900006BCF14BC15BC84B5826084BD85B5816095
:1009100085BDEDECF2E0E491F0E0EE0FFF1FE8584A
:10092000FD4F85919491EDE6F2E0E491E093300380
:1009300053CF1092800010928100809181008860D6
:100940008093810080918100816080938100EDEC33
:10095000F2E0E491F0E0EE0FFF1FE858FD4F8591C3
:100960009491EDE6F2E0E491E0932F0335CF1092FD
:10097000B0001092B1008091B00082608093B0000E
:100980008091B10081608093B100EDECF2E0E491E0
:10099000F0E0EE0FFF1FE858FD4F85919491909382
:1009A0002E0380932D03EDE6F2E0E491E0932C0317
:1009B00013CF109290001092910080919100886066
:1009C0008093910080919100816080939100EDEC83
:1009D000F2E0E491F0E0EE0FFF1FE858FD4F859143
:1009E0009491EDE6F2E0E491E0932B03C3E0F4CEC2
:1009F0001092A0001092A1008091A10088608093C5
:100A0000A1008091A10081608093A100EDECF2E053
:100A1000E491F0E0EE0FFF1FE858FD4F85919491AF
:100A2000EDE6F2E0E491E0932A03D6CE60E072E1D5
:100A30008AE790E00E945210DA01C9010197A109EA
:100A4000B109AC01C130D9F420918100287F216027
:100A50002093810090938900809388008FEF9FEF0F
:100A6000DC018093410390934203A0934303B0932E
:100A7000440380916F00826080936F00A4CEC330E6
:100A8000D9F420919100287F2160209391009093C8
:100A90009900809398008FEF9FEFDC0180933903DA
:100AA00090933A03A0933B03B0933C038091710071
:100AB00082608093710087CEC430D9F42091A10068
:100AC000287F21602093A1009093A9008093A80023
:100AD0008FEF9FEFDC018093350390933603A09353
:100AE0003703B09338038091720082608093720064
:100AF0006ACEC530D9F420912101287F216020934E
:100B0000210190932901809328018FEF9FEFDC0151
:100B10008093310390933203A0933303B093340353
:100B2000809173008260809373004DCEC23009F4CF
:100B3000B0CE3CF4CC2309F468CEC13009F043CEEA
:100B400089CFC43009F20CF4A2CFC530D1F23BCE2C
:100B50001F93CF93DF93182FEB0161E00E94A8034E
:100B6000209739F460E0812FDF91CF911F910C9491
:100B7000D702CF3FD10511F461E0F5CFE12FF0E0CE
:100B8000EE52FE4FE491E150E23108F0B3C0F0E0E4
:100B90008827E253FA4F8F4F0C947110E005E80557
:100BA000ED05F70501067A060B0613061B0625065A
:100BB0002F063906480652067A065C066606700657
:100BC00084B5806884BDC7BDDF91CF911F91089522
:100BD00084B5806284BDC8BDF7CF809180008068F5
:100BE00080938000D0938900C0938800EDCF8091DE
:100BF0008000806280938000D0938B00C0938A0035
:100C0000E3CF80918000886080938000D0938D0036
:100C1000C0938C00D9CF8091B00080688093B000E1
:100C2000C093B300D1CF8091B00080628093B000B8
:100C3000C093B400C9CF80919000806880939000E9
:100C4000D0939900C0939800BFCF809190008062AC
:100C500080939000D0939B00C0939A00B5CF809171
:100C60009000886080939000D0939D00C0939C007A
:100C7000ABCF8091A00080688093A0008091A000FD
:100C80008F7B8093A000D093A900C093A8009CCF35
:100C90008091A00080628093A000D093AB00C093AD
:100CA000AA0092CF8091A00088608093A000D0938A
:100CB000AD00C093AC0088CF809120018068809304
:100CC0002001D0932901C09328017ECF809120017B
:100CD000806280932001D0932B01C0932A0174CFAE
:100CE00080912001886080932001D0932D01C093D2
:100CF0002C016ACFC038D1050CF03ECF33CFCF9353
:100D0000DF93EB01BC0187E00E94A805BE0186E0ED
:100D10000E94A80570E060E085E0DF91CF910C941F
:100D2000A8053FB7F8948091190390911A03A091F8
:100D30001B03B0911C0326B5A89B05C02F3F19F0DB
:100D40000196A11DB11D3FBFBA2FA92F982F88274B
:100D5000BC01CD01620F711D811D911D42E0660F26
:100D6000771F881F991F4A95D1F708958F929F92F8
:100D7000AF92BF92CF92DF92EF92FF924B015C0154
:100D80000E9491066B017C010E9491066C197D09FD
:100D90008E099F09683E734081059105A8F321E003
:100DA000821A9108A108B10888EEC80E83E0D81E07
:100DB000E11CF11C81149104A104B10429F7FF90F6
:100DC000EF90DF90CF90BF90AF909F908F9008955D
:100DD0002091CA02260F3327331F21323105ECF44C
:100DE0002091EE02FC0190E080E0243069F082E086
:100DF0000895A091CA022191AC0146555D4FA40F00
:100E0000B52FB11D2C930196861798F38091CA02D5
:100E1000680F6093CA0280E0089581E008951092FF
:100E2000EE0281E08093F0021092EF0261E084E133
:100E30000E94D70261E085E10E94D702E9EBF0E071
:100E400080818E7F808380818D7F808388E4809302
:100E5000B80085E48093BC000895CF93DF9391E0C0
:100E60009093A9028823B9F0C091B800D091BA003C
:100E70008091BC008A7B8093BC0060E084E10E948A
:100E8000D70260E085E10E94D7020E940F07D0934D
:100E9000BA00C093B800DF91CF9108950895E09112
:100EA000240380912303E81730F4F0E0EC57FD4F62
:100EB000808190E008958FEF9FEF08959091240333
:100EC000809123032FEF3FEF981748F4E92FF0E0CC
:100ED000EC57FD4F208130E09F5F90932403C901C0
:100EE00008958091230390912403891B990B089501
:100EF000CF92DF92EF92FF920F931F93CF93DF93E6
:100F00007C01CB018A0120918302222389F0EB012D
:100F10006B01C40ED51ECC15DD0569F06991D701B2
:100F2000ED91FC910190F081E02DC7011995F3CF6F
:100F3000642F0E94E806C801DF91CF911F910F91A5
:100F4000FF90EF90DF90CF900895CF93DF931F92A3
:100F5000CDB7DEB76983209183022223F9F0209177
:100F60002103203258F021E030E0FC01338322835A
:100F700090E080E00F90DF91CF910895809122035F
:100F8000E82FF0E0ED59FD4F998190838F5F8093BA
:100F900022038093210381E090E0ECCF61E0CE0159
:100FA00001960E94E806F7CFCF92DF92EF92FF9270
:100FB0000F931F93CF93DF93FC01C48121E0209313
:100FC0008302C09362021092220310922103838550
:100FD000682B86EE93E00E94A507D0912103D132C1
:100FE00008F092C00E9491066B017C018091EE0294
:100FF000811165C082E08093EE0281E08093F0026F
:101000008FEF8093ED0210921203D0931103A3E6A9
:10101000B2E0E1EFF2E080E0D81385C01092130354
:1010200080911303CC0FC82BC09313038091EF0260
:10103000813009F07CC01092EF020E9491066B0192
:101040007C01809113038093BB008091A502909155
:10105000A602A091A702B091A802892B8A2B8B2B04
:1010600099F00E9491060091A5021091A60220918C
:10107000A7023091A8026C197D098E099F090617F5
:10108000170728073907E0F18091BC0083FDD9CF0D
:1010900085EC8093BC000E9491066B017C018091DD
:1010A000EE02823009F445C08091ED028F3F61F17C
:1010B0008091ED02803241F18091ED0225C0809156
:1010C000A5029091A602A091A702B091A802892B37
:1010D0008A2B8B2B09F48ACF0E9491060091A502DE
:1010E0001091A6022091A7023091A8026C197D09E7
:1010F0008E099F09061717072807390708F076CFCA
:101100008091A4020E942D071092220310922103C5
:1011100010928302DF91CF911F910F91FF90EF907A
:10112000DF90CF9008959D9191938F5F75CF85EE5D
:10113000B0CF8091A5029091A602A091A702B09194
:10114000A802892B8A2B8B2B09F4A9CF0E94910628
:101150000091A5021091A6022091A7023091A80249
:101160006C197D098E099F0906171707280739078B
:1011700008F095CFC5CF089590E080E008950F93D3
:101180001F93CF938C01C62F0E94D4076C2F6460ED
:10119000C8010E94D4076C2F6B7FC8010E94D4073E
:1011A00083EC90E00197F1F7CF911F910F91089593
:1011B0000F931F93CF93DF938C01D62FC42F607FA3
:1011C000642B0E94BF0880E1D89FB00111246C2BD2
:1011D000C801DF91CF911F910F910C94BF08CF935D
:1011E000DF93823028F09091F70398609093F70393
:1011F0008093FA0362E370E080E090E00E94B6061C
:101200006091FD0382EF93E00E94D40768EE73E0E3
:1012100080E090E00E94B60660E382EF93E00E94D7
:10122000BF08CBE4D6E4CE010197F1F760E382EF8B
:1012300093E00E94BF082197F1F760E382EF93E00B
:101240000E94BF0883E592E00197F1F760E282EF28
:1012500093E00E94BF086091F703606240E082EF74
:1012600093E00E94D80884E08093F80340E06CE0AB
:1012700082EF93E00E94D80840E061E082EF93E0C3
:101280000E94D808CBE3DFE1CE010197F1F782E0BD
:101290008093F90340E066E082EF93E00E94D80873
:1012A00040E062E082EF93E00E94D8082197F1F7D6
:1012B000DF91CF910895CF93DF9300D000D01F929C
:1012C0001F92CDB7DEB798E0E1E0F2E0DE011196C3
:1012D00001900D929A95E1F79091FA03981708F40E
:1012E0008FEF90E0880F991F21E030E02C0F3D1F19
:1012F000820F931FFC016081606840E082EF93E001
:1013000028960FB6F894DEBF0FBECDBFDF91CF9108
:101310000C94D80841E00E94D80881E090E008953C
:10132000FB0101900020E9F73197AF01461B570BF5
:10133000DC01ED91FC910280F381E02D19948F92F4
:101340009F92AF92BF92EF92FF920F931F93CF9312
:10135000DF93CDB7DEB7A1970FB6F894DEBF0FBE0F
:10136000CDBF7C01FA01CB0119A2223008F42AE09A
:101370008E010F5D1F4F822E912CB12CA12CBF012D
:10138000A50194010E943010F901CA016A300CF5E0
:10139000605DD8016E938D01232B242B252B79F7CB
:1013A00090E080E0109721F0BD01C7010E949009F4
:1013B000A1960FB6F894DEBF0FBECDBFDF91CF91DF
:1013C0001F910F91FF90EF90BF90AF909F908F90E3
:1013D0000895695CDECFCF92DF92EF92FF920F9378
:1013E0001F93CF93DF93EC016A017B01E881F981C0
:1013F0000190F081E02D6DE219958C01442755276D
:10140000BA014C195D096E097F092AE0CE010E94DC
:101410009F09800F911FDF91CF911F910F91FF9036
:10142000EF90DF90CF900895AB01770F660B770BAD
:1014300077FD0C94EB092AE00C949F0985ED8093CD
:10144000BC008091A5029091A602A091A702B09144
:10145000A8020796A11DB11D23E0B695A795979503
:1014600087952A95D1F72091BC0024FD03C01092E6
:10147000EE0208954091A5025091A6026091A70244
:101480007091A802452B462B472B69F30097A105C5
:10149000B10541F025E32A95F1F700000197A10974
:1014A000B109E1CF8091A4020C942D071F920F92F5
:1014B0000FB60F9211240BB60F922F933F934F93B9
:1014C0005F936F937F938F939F93AF93BF93EF93AC
:1014D000FF9380913D0390913E03A0913F03B09113
:1014E0004003892B8A2B8B2BE1F190912C03E09107
:1014F0002D03F0912E0380818927808380913D0305
:1015000090913E03A0913F03B09140031816190635
:101510001A061B069CF480913D0390913E03A09116
:101520003F03B09140030197A109B10980933D03A6
:1015300090933E03A0933F03B0934003FF91EF913C
:10154000BF91AF919F918F917F916F915F914F91DB
:101550003F912F910F900BBE0F900FBE0F901F90D9
:101560001895809100020E946303E8CF1F920F92AA
:101570000FB60F9211240BB60F922F933F934F93F8
:101580005F936F937F938F939F93AF93BF93EF93EB
:10159000FF9389E493E00E941702FF91EF91BF91BE
:1015A000AF919F918F917F916F915F914F913F91FB
:1015B0002F910F900BBE0F900FBE0F901F9018959C
:1015C0001F920F920FB60F9211240BB60F922F930A
:1015D0008F939F93EF93FF93E0915903F0915A03F8
:1015E0008081E0915F03F091600382FD1DC09081D6
:1015F000809162038F5F8F7320916303821741F0A4
:10160000E0916203F0E0E75BFC4F958F809362030B
:10161000FF91EF919F918F912F910F900BBE0F90A3
:101620000FBE0F901F9018958081F2CF1F920F92DE
:101630000FB60F9211242F933F938F939F93AF93E5
:10164000BF938091150390911603A0911703B09159
:1016500018033091140323E0230F2D3758F501961A
:10166000A11DB11D209314038093150390931603BD
:10167000A0931703B09318038091190390911A0354
:10168000A0911B03B0911C030196A11DB11D809375
:10169000190390931A03A0931B03B0931C03BF91EB
:1016A000AF919F918F913F912F910F900FBE0F900F
:1016B0001F90189526E8230F0296A11DB11DD2CFC9
:1016C0001F920F920FB60F9211240BB60F922F9309
:1016D0003F934F935F936F937F938F939F93AF93BA
:1016E000BF93EF93FF938091B900887F803609F410
:1016F0004DC008F040C0883209F4A9C028F58031F7
:1017000009F49DC0C8F4882309F4FBC0883009F4AB
:1017100096C0FF91EF91BF91AF919F918F917F9173
:101720006F915F914F913F912F910F900BBE0F9052
:101730000FBE0F901F901895883109F488C0803231
:1017400041F78093ED0214C0803409F49DC040F449
:101750008033B9F38833E9F68093ED0285ECB0C0AD
:10176000803509F485C0883509F496C0883489F637
:101770000E941E0ACECF883909F48CC038F588370C
:1017800029F050F4883611F0803719F683E0809301
:10179000EE021092EC0257C0883809F47BC0803901
:1017A00019F0803809F0B5CF8091EC02803208F052
:1017B00071C0E091EC0281E08E0F8093EC02809189
:1017C000BB00F0E0E453FD4F80833DC0803B39F027
:1017D000E0F4803A09F479C0883A09F09ACF84E0BD
:1017E0008093EE021092CB021092CA02E0911F0386
:1017F000F091200319958091CA0281110FC081E0F8
:101800008093CA021092AA0209C0803C09F4A6CFB4
:10181000883C09F4A3CF883B09F07BCFE091CB0251
:1018200081E08E0F8093CB02F0E0E655FD4F808182
:101830008093BB009091CB028091CA0229C0809115
:1018400013038093BB0085EC8093BC0062CF909122
:10185000120380911103981758F5E091120381E06B
:101860008E0F80931203F0E0EF50FD4F8081E9CF9F
:10187000E091120381E08E0F809312038091BB00F0
:10188000F0E0EF50FD4F808390911203809111039F
:101890009817C8F285E8D8CFE091120381E08E0F47
:1018A000809312038091BB00F0E0EF50FD4F8083E6
:1018B0008091F00281115CCF81E08093EF0284EA95
:1018C0008093BC001092EE0224CF85EC8093BC0084
:1018D0001092EE028091EC02803230F4E091EC0242
:1018E000F0E0E453FD4F10826091EC0270E0E09173
:1018F0001D03F0911E038CEC92E019951092EC02FE
:1019000008CF1092ED0234CFCF92DF92EF92FF9288
:101910000F931F93E82FF92F05C0015011092109DA
:10192000310961F1908196239417B9F305C00150F4
:1019300011092109310911F1908196239413F7CFF0
:10194000C12CD12CE12CF12C0AC08FEFC81AD80A77
:10195000E80AF80A0C151D052E053F0579F080816F
:101960008623841791F36C2D7D2D8E2D9F2D1F9135
:101970000F91FF90EF90DF90CF90089560E070E0BE
:1019800080E090E01F910F91FF90EF90DF90CF905B
:101990000895E9E4F3E01382128288EE93E0A0E078
:1019A000B0E084839583A683B7832DE032E0318352
:1019B000208325EC30E03587248724EC30E037871E
:1019C000268720EC30E0318B208B21EC30E0338B0C
:1019D000228B22EC30E0358B248B26EC30E0378BE9
:1019E000268B118E128E138E148EE6EEF3E0138288
:1019F000128284839583A683B7838FE192E09183DB
:101A00008083E2EFF3E01382128281E392E091831C
:101A1000808387E2848380E1818782E082871386E6
:101A20000895789484B5826084BD84B5816084BD56
:101A300085B5826085BD85B5816085BD80916E006C
:101A4000816080936E00109281008091810082609D
:101A500080938100809181008160809381008091DA
:101A600080008160809380008091B10084608093C9
:101A7000B1008091B00081608093B00080919100AE
:101A800082608093910080919100816080939100A9
:101A9000809190008160809390008091A10082608D
:101AA0008093A1008091A10081608093A10080912A
:101AB000A00081608093A0008091210182608093CA
:101AC0002101809121018160809321018091200179
:101AD00081608093200180917A00846080937A00F5
:101AE00080917A00826080937A0080917A00816090
:101AF00080937A0080917A00806880937A001092B7
:101B0000C100E0915903F0915A0382E08083E09193
:101B10005503F09156031082E0915703F09158035A
:101B20008FEC808310926103E0915D03F0915E037E
:101B300086E08083E0915B03F0915C0380818061AB
:101B40008083E0915B03F0915C03808188608083F7
:101B5000E0915B03F0915C03808180688083E09179
:101B60005B03F0915C0380818F7D808382E00E9423
:101B7000EF08109224031092230310922203109274
:101B800021030E940F0781EA91E090932003809344
:101B90001F0382EA91E090931E0380931D0310922D
:101BA000F7038091FC030E94EF0840E061E082EFC0
:101BB00093E00E94D8088BE39FE10197F1F788E05A
:101BC0008093FD0360E082EF93E00E94D40761E020
:101BD00089E00E94A80360E08AE00E94A80361E017
:101BE00087E00E94A80361E086E00E94A80361E00C
:101BF00085E00E94A803C3E0D0E093E2E92EF12C37
:101C00002CE3C22E22E0D22E3CE9A32E32E0B32EEA
:101C100060E089E00E94D702CE010197F1F761E010
:101C200089E00E94D702C7010197F1F760E089E0DF
:101C30000E94D702F6016491F5018491E82FF0E04B
:101C4000EE0FFF1FE85EFD4F8591949100E412E4D2
:101C50002FE030E0462F0E94840C6115710581054C
:101C6000910529F06F5F7F4F8F4F9F4F9F700E94AC
:101C7000370F2B013C0126E933E44BE05DE30E9482
:101C80009B0F20E030E040E05FE30E949B0F0E944A
:101C9000FF0E70932803609327032EE338EE49E587
:101CA0005CE3C301B2010E949B0F20E030E040E002
:101CB0005FE30E949B0F0E94FF0E709326036093C8
:101CC000250369E372E089E493E00E949009409162
:101CD000270350912803052E000C660B770B77FF26
:101CE00068C089E493E00E94EB096AE472E089E449
:101CF00093E00E94900980E00E945B096DE472E02D
:101D000082EF93E00E94900960912703709128036D
:101D100082EF93E00E94140A68E572E082EF93E09C
:101D20000E9490096AE070E080E090E00E94B606B0
:101D300081E00E945B096DE472E082EF93E00E9413
:101D40009009609125037091260382EF93E00E9431
:101D5000140A6CE572E082EF93E00E9490096AE059
:101D600070E080E090E00E94B60680912703909199
:101D70002803893091051CF570E060E08FEF90E05A
:101D80000E947F068CEA9DE00E94D90364E670E021
:101D900080E090E00E94B60684EC99E00E94D903AE
:101DA00064E670E080E090E00E94B6060E94A60221
:101DB0002FCF2AE089E493E00E949F0996CF8D30CF
:101DC0009105A4F46FEF70E08FEF90E00E947F0622
:101DD0006AEF70E080E090E00E94B6068BE30E941C
:101DE00063036AEF70E080E090E0DECF6FEF70E0B9
:101DF000429714F070E060E090E080E0E7CF0E944E
:101E0000060F6894B1110C94950F08950E947A0FF3
:101E100088F09F5798F0B92F9927B751B0F0E1F0AB
:101E2000660F771F881F991F1AF0BA95C9F714C05B
:101E3000B13091F00E94940FB1E008950C94940F8A
:101E4000672F782F8827B85F39F0B93FCCF3869594
:101E500077956795B395D9F73EF4909580957095F1
:101E600061957F4F8F4F9F4F0895E89409C097FB6E
:101E70003EF490958095709561957F4F8F4F9F4F61
:101E80009923A9F0F92F96E9BB279395F6958795A5
:101E900077956795B795F111F8CFFAF4BB0F11F468
:101EA00060FF1BC06F5F7F4F8F4F9F4F16C088230F
:101EB00011F096E911C0772321F09EE8872F762F45
:101EC00005C0662371F096E8862F70E060E02AF086
:101ED0009A95660F771F881FDAF7880F9695879572
:101EE00097F9089557FD9058440F551F59F05F3FDB
:101EF00071F04795880F97FB991F61F09F3F79F02C
:101F000087950895121613061406551FF2CF4695AD
:101F1000F1DF08C0161617061806991FF1CF86952F
:101F20007105610508940895E894BB276627772713
:101F3000CB0197F908950E94AE0F0C941F100E94D8
:101F4000111038F00E94181020F0952311F00C9415
:101F500008100C940E1011240C94950F0E94720F0F
:101F600070F3959FC1F3950F50E0551F629FF001EC
:101F7000729FBB27F00DB11D639FAA27F00DB11D05
:101F8000AA1F649F6627B00DA11D661F829F22278E
:101F9000B00DA11D621F739FB00DA11D621F839F15
:101FA000A00D611D221F749F3327A00D611D231FEB
:101FB000849F600D211D822F762F6A2F11249F5739
:101FC00050409AF0F1F088234AF0EE0FFF1FBB1F3C
:101FD000661F771F881F91505040A9F79E3F5105FB
:101FE00080F00C9408100C94950F5F3FE4F3983E3A
:101FF000D4F3869577956795B795F795E7959F5FA5
:10200000C1F7FE2B880F911D9695879597F9089536
:1020100097F99F6780E870E060E008959FEF80EC9B
:10202000089500240A94161617061806090608953E
:1020300000240A9412161306140605060895092EA4
:102040000394000C11F4882352F0BB0F40F4BF2B13
:1020500011F460FF04C06F5F7F4F8F4F9F4F089553
:10206000A1E21A2EAA1BBB1BFD010DC0AA1FBB1F9C
:10207000EE1FFF1FA217B307E407F50720F0A21B0E
:10208000B30BE40BF50B661F771F881F991F1A947B
:1020900069F760957095809590959B01AC01BD01A5
:1020A000CF010895052E97FB1EF400940E9469103D
:1020B00057FD07D00E94301007FC03D04EF40C945B
:1020C000691050954095309521953F4F4F4F5F4F88
:1020D000089590958095709561957F4F8F4F9F4F94
:1020E0000895EE0FFF1F881F8BBF0790F691E02D1C
:1020F0001994F894FFCFFF00004000140054000032
:102100000000003902A301D00186020102DF01F3C1
:102110000100000000A5077807BC084E0771075EA4
:10212000074F07000000008A09A301BC08BB084F45
:10213000646C65676C6F7363207720636D3A200071
:102140000D0A004F646C65676C6F73633A0020631F
:082150006D0020696E63680058
:10E000000D9489F10D94B2F10D94B2F10D94B2F129
:10E010000D94B2F10D94B2F10D94B2F10D94B2F1F0
:10E020000D94B2F10D94B2F10D94B2F10D94B2F1E0
:10E030000D94B2F10D94B2F10D94B2F10D94B2F1D0
:10E040000D94B2F10D94B2F10D94B2F10D94B2F1C0
:10E050000D94B2F10D94B2F10D94B2F10D94B2F1B0
:10E060000D94B2F10D94B2F10D94B2F10D94B2F1A0
:10E070000D94B2F10D94B2F10D94B2F10D94B2F190
:10E080000D94B2F10D94B2F10D94B2F10D94B2F180
:10E090000D94B2F10D94B2F10D94B2F10D94B2F170
:10E0A0000D94B2F10D94B2F10D94B2F10D94B2F160
:10E0B0000D94B2F10D94B2F10D94B2F10D94B2F150
:10E0C0000D94B2F10D94B2F10D94B2F10D94B2F140
:10E0D0000D94B2F10D94B2F10D94B2F10D94B2F130
:10E0E0000D94B2F141546D656761323536300041AF
:10E0F000726475696E6F206578706C6F72657220DE
:10E1000073746B3530305632206279204D4C530099
:10E11000426F6F746C6F616465723E004875683F52
:10E1200000436F6D70696C6564206F6E203D200048
:10E130004350552054797065202020203D20005FF9
:10E140005F4156525F415243485F5F3D2000415658
:10E1500052204C696243205665723D20004743437C
:10E160002056657273696F6E203D20004350552024
:10E1700049442020202020203D20004C6F7720663D
:10E18000757365202020203D20004869676820665F
:10E190007573652020203D200045787420667573D6
:10E1A00065202020203D20004C6F636B2066757336
:10E1B000652020203D20004D617220203720323024
:10E1C000313300312E362E3800342E332E350056A2
:10E1D00023202020414444522020206F7020636F70
:10E1E00064652020202020696E73747275637469E1
:10E1F0006F6E2061646472202020496E74657272B3
:10E20000757074006E6F20766563746F7200726A49
:10E210006D702020006A6D70200057686174207056
:10E220006F72743A00506F7274206E6F7420737541
:10E2300070706F72746564004D7573742062652030
:10E2400061206C6574746572002000577269747483
:10E25000696E672045450052656164696E672045B7
:10E26000450045452065727220636E743D00504F35
:10E27000525400303D5A65726F2061646472003FF1
:10E280003D43505520737461747300403D454550C3
:10E29000524F4D207465737400423D426C696E6B41
:10E2A000204C454400453D44756D70204545505215
:10E2B0004F4D00463D44756D7020464C415348001B
:10E2C000483D48656C70004C3D4C69737420492F83
:10E2D0004F20506F72747300513D51756974005234
:10E2E0003D44756D702052414D00563D73686F7707
:10E2F00020696E7465727275707420566563746FF0
:10E30000727300593D506F727420626C696E6B00BD
:10E310002A0011241FBECFEFD1E2DEBFCDBF01E046
:10E320000CBF12E0A0E0B2E0EEE1FDEF03E00BBFB6
:10E3300002C007900D92A030B107D9F712E0A0E01B
:10E34000B2E001C01D92AE30B107E1F70F9460F367
:10E350000D948DFE01E20EBF0FEF0DBF11241FBE05
:10E360000D9460F30D9400F020E030E040ED57E0B4
:10E3700005C0FA013197F1F72F5F3F4F2817390792
:10E38000C0F308959C01260F311DC901A0E0B0E043
:10E390002F5F3F4FABBFFC018791882361F08093D3
:10E3A000C6008091C00086FFFCCF8091C0008064D1
:10E3B0008093C000EACF08958DE08093C6008091DD
:10E3C000C00086FFFCCF8091C00080648093C000B5
:10E3D0008AE08093C6008091C00086FFFCCF8091C8
:10E3E000C00080648093C00008950F94C2F10F9420
:10E3F000DCF10895FC019081992359F09093C600B7
:10E400008091C00086FFFCCF8091C0008064809323
:10E41000C0003196992379F70895282F982F929567
:10E420009F70892F805D8A3308F0895F8093C600D2
:10E430008091C00086FFFCCF8091C00080648093F3
:10E44000C000822F8F70982F905D9A3308F0995FEB
:10E450009093C6008091C00086FFFCCF8091C000E1
:10E4600080648093C00008959C01FB01853691056E
:10E470001CF46330710594F0C90164E670E00F94F8
:10E480002EFE605D7F4F6093C6008091C00086FFC6
:10E49000FCCF8091C00080648093C0002B30310598
:10E4A00014F43297B4F0C90164E670E00F942EFEC4
:10E4B0006AE070E00F942EFE605D7F4F6093C600AF
:10E4C0008091C00086FFFCCF8091C0008064809363
:10E4D000C000C9016AE070E00F942EFEC0968093E0
:10E4E000C6008091C00086FFFCCF8091C000806490
:10E4F0008093C00008951F93182F8EE692EE60E07F
:10E500000F94C2F11093C6008091C00086FFFCCF2B
:10E510008091C00080648093C0000F94DCF11F9153
:10E5200008952F923F924F925F926F927F928F92B7
:10E530009F92AF92BF92CF92DF92EF92FF920F9392
:10E540001F93DF93CF93CDB7DEB762970FB6F894E2
:10E55000DEBF0FBECDBF382E622ECA01DB015C01CB
:10E560006D01772420E2222E2E010894411C511CBB
:10E570008BC081E0A81680E0B80681E0C80680E084
:10E58000D80628F0C601AA27BB270F940DF2BB2797
:10E59000AD2D9C2D8B2D0F940DF28A2D0F940DF225
:10E5A0002092C6008091C00086FFFCCF8091C00001
:10E5B00080648093C0009DE29093C6008091C0006B
:10E5C00086FFFCCF8091C00080648093C0002092C1
:10E5D000C6008091C00086FFFCCF8091C00080649F
:10E5E0008093C00019828601750188249924A1E0D6
:10E5F0003A1651F03A1620F0B2E03B1661F409C029
:10E600000BBFF701779007C0C7010F9477FE782EF4
:10E6100002C0F7017080872D0F940DF22092C60082
:10E620008091C00086FFFCCF8091C0008064809301
:10E63000C000872D8052F401EF70F0708F3520F408
:10E64000E40DF51D708204C0E40DF51D8EE280839B
:10E650000894E11CF11C011D111D0894811C911CE2
:10E6600090E18916910409F0C2CF80E190E0A0E02A
:10E67000B0E0A80EB91ECA1EDB1E198AC2010F9493
:10E68000FAF10F94DCF16A94662009F072CF629679
:10E690000FB6F894DEBF0FBECDBFCF91DF911F91B3
:10E6A0000F91FF90EF90DF90CF90BF90AF909F9031
:10E6B0008F907F906F905F904F903F902F90089534
:10E6C0002F923F924F925F926F927F928F929F9282
:10E6D000AF92BF92CF92DF92EF92FF920F931F9370
:10E6E000DF93CF93CDB7DEB7CD53D1400FB6F894BB
:10E6F000DEBF0FBECDBF01E20EBF0FEF0DBF94B75F
:10E70000F894A89514BE80916000886180936000A1
:10E7100010926000789493FF05C0E0910002F091A0
:10E7200001021995279A2F9A8091C00082608093E8
:10E73000C00080E18093C40088E18093C1000000A4
:10E74000EE24FF24870144E0A42EB12CCC24DD2448
:10E7500024C0C5010197F1F70894E11CF11C011DCB
:10E76000111D21E2E2162EE4F20620E0020720E06D
:10E77000120718F031E0C32ED12CC801B70127ECE5
:10E780003BE140E050E00F9441FE611571058105C9
:10E79000910519F485B1805885B98091C00087FD35
:10E7A00003C0C114D104A9F2A6014F5F5F4FC25E3E
:10E7B000DE4F59834883CE51D140C25EDE4F8881FF
:10E7C0009981CE51D140019711F00D9410FEC05D9A
:10E7D000DE4F19821882C053D14060E0C15DDE4F28
:10E7E0001882CF52D14088249924C35DDE4F19820C
:10E7F0001882CD52D140C05EDE4F188219821A8233
:10E800001B82C052D140CE5CDE4F188219821A8220
:10E810001B82C253D140EE24FF2487010BBFF701B6
:10E8200007911691C45CDE4F19830883CC53D14005
:10E830000D940BFEC25EDE4F28813981CE51D1404E
:10E840002130310509F52091C600C25EDE4F1982E4
:10E850001882CE51D14022C02F5F3F4F4F4F5F4FA4
:10E86000213082E138078AE7480780E0580780F0C6
:10E87000C45CDE4FE881F981CC53D140EF5FFF4F9C
:10E8800019F0EE27FF27099420E030E040E050E047
:10E890008091C00087FFE0CF2091C600C35DDE4FAE
:10E8A00048815981CD52D1404F5F5F4FC35DDE4FEC
:10E8B00059834883CD52D140213209F063C64A3092
:10E8C000510508F05FC60894811C911C53E0851621
:10E8D000910409F059C600E010E018C081E280936D
:10E8E000C6008091C00086FFFCCF8091C00080648C
:10E8F0008093C0002F5F3F4F2931310579F70F9486
:10E90000DCF10F5F1F4F0530110519F020E030E0FA
:10E91000E5CF10920A0210920B0210920C02109294
:10E920000D02109206021092070210920802109235
:10E930000902109202021092030210920402109235
:10E9400005028FEE90EE60E00F94F5F180E191EE1C
:10E9500060E00F94C2F18091C00087FFFCCF9091DE
:10E96000C600903608F09F759032B8F09093C600BC
:10E970008091C00086FFFCCF8091C00080648093AE
:10E98000C000A0E2A093C6008091C00086FFFCCF2B
:10E990008091C00080648093C000983409F4D7C18E
:10E9A0009934B8F4923409F459C1933458F490333B
:10E9B00019F1903308F4E3C59F33A1F1903409F0C5
:10E9C000DEC5BDC0953409F470C1963409F0D7C5D1
:10E9D00098C1923509F42BC2933538F49C3409F46C
:10E9E000F5C1913509F0CBC518C2963509F445C279
:10E9F000993509F0C4C567C483E792EE62E00F94CD
:10EA0000F5F110920602109207021092080210927D
:10EA1000090210920A0210920B0210920C0210923C
:10EA20000D0213C18FE792EE62E00F94F5F18FEEC5
:10EA300090EE60E00F94F5F181E291EE60E00F94CA
:10EA4000C2F187EB91EE60E00F94F5F180E391EE77
:10EA500060E00F94C2F184EE90EE60E00F94F5F167
:10EA60008FE391EE60E00F94C2F186E090E061E008
:10EA700070E00F9434F20F94DCF18DE591EE60E0DC
:10EA80000F94C2F189EC91EE60E00F94F5F18EE401
:10EA900091EE60E00F94C2F183EC91EE60E00F9490
:10EAA000F5F18CE691EE60E00F94C2F18EE10F94E7
:10EAB0000DF288E90F940DF281E00F940DF20F949E
:10EAC000DCF18BE791EE60E00F94C2F119E0E0E039
:10EAD000F0E010935700E4918E2F0F940DF20F94F5
:10EAE000DCF18AE891EE60E00F94C2F1E3E0F0E03F
:10EAF00010935700E4918E2F0F940DF20F94DCF1D8
:10EB000089E991EE60E00F94C2F1E2E0F0E0109349
:10EB10005700E4918E2F0F940DF20F94DCF188EAE8
:10EB200091EE60E00F94C2F1E1E0F0E01093570045
:10EB30001491812F0F940DF20F94DCF107CF8BE825
:10EB400092EE62E00F94F5F18BE492EE60E00F94A8
:10EB5000F5F10F94DCF100E010E019C0C8016F2D51
:10EB60000F947FFEFF2031F489E492EE60E00F9471
:10EB7000C2F10BC0F092C6008091C00086FFFCCFAE
:10EB80008091C00080648093C0000F5F1F4FC80158
:10EB900081519F41A0E0B0E0ABBFFC01F790BAE229
:10EBA000FB1621F0E2E000301E07C1F60F94DCF105
:10EBB0000F94DCF187E592EE60E00F94F5F10F948D
:10EBC000DCF1CC24DD2400E010E01EC0C8010F946D
:10EBD00077FEF82E882331F489E492EE60E00F94FA
:10EBE000C2F10BC08093C6008091C00086FFFCCFAD
:10EBF0008091C00080648093C000FE1419F00894D6
:10EC0000C11CD11C0F5F1F4FC80181519F41A0E063
:10EC1000B0E0ABBFFC01E790FAE2EF1621F022E092
:10EC20000030120799F60F94DCF10F94DCF182E6C4
:10EC300092EE60E00F94C2F1C60161E070E00F94C3
:10EC400034F20F94DCF10F94DCF110920202109276
:10EC50000302109204021092050278CE89E992EE26
:10EC600062E00F94F5F1279A2F9A16C02F9880E052
:10EC700090E0E0EDF7E03197F1F7019684369105E9
:10EC8000C1F72F9A80E090E0E0EDF7E03197F1F7DF
:10EC9000019684369105C1F78091C00087FFE6CFC9
:10ECA0008091C00087FFFCCF64C485EA92EE62E0E9
:10ECB0000F94F5F140910202509103026091040219
:10ECC0007091050281E020E10F9491F2809102029F
:10ECD00090910302A0910402B091050280509F4FD1
:10ECE000AF4FBF4F8093020290930302A0930402A0
:10ECF000B093050280509041A040B04008F426CE69
:10ED0000A4CF83EB92EE62E00F94F5F140910602FE
:10ED100050910702609108027091090280E020E1A1
:10ED20000F9491F28091060290910702A09108023F
:10ED3000B091090280509F4FAF4FBF4F80930602A2
:10ED400090930702A0930802B0930902FFCD80ECD4
:10ED500092EE62E00F94F5F183E792EE60E00F949B
:10ED6000F5F18FE792EE60E00F94F5F18BE892EE0B
:10ED700060E00F94F5F189E992EE60E00F94F5F10F
:10ED800085EA92EE60E00F94F5F183EB92EE60E09D
:10ED90000F94F5F180EC92EE60E00F94F5F187ECC2
:10EDA00092EE60E00F94F5F188ED92EE60E00F9442
:10EDB000F5F18FED92EE60E00F94F5F18AEE92EEB0
:10EDC00060E00F94F5F183E093EEBDCD87EC92EE19
:10EDD00062E00F94F5F181E40F947BF282E40F94EA
:10EDE0007BF283E40F947BF284E40F947BF285E45E
:10EDF0000F947BF286E40F947BF287E40F947BF20E
:10EE000088E40F947BF28AE40F947BF28BE40F94F6
:10EE10007BF28CE40F947BF299CD88ED92EE62E068
:10EE20000F94F5F1772473948824992409C48FED05
:10EE300092EE62E00F94F5F140910A0250910B02BC
:10EE400060910C0270910D0282E020E10F9491F22A
:10EE500080910A0290910B02A0910C02B0910D02D8
:10EE600080509F4FAF4FBF4F80930A0290930B0289
:10EE7000A0930C02B0930D0269CD8AEE92EE62E08F
:10EE80000F94F5F184EE90EE60E00F94F5F18FECC5
:10EE900091EE60E00F94F5F1662477244301CC5D98
:10EEA000DE4F19821882C452D140D401C301B695F5
:10EEB000A79597958795CA5DDE4F88839983AA8326
:10EEC000BB83C652D140CC5DDE4FA881B981C4520C
:10EED000D1401196CC5DDE4FB983A883C452D14096
:10EEE000CD0162E070E00F9434F2B0E2B093C6005E
:10EEF0008091C00086FFFCCF8091C0008064809329
:10EF0000C000EDE2E093C6008091C00086FFFCCF18
:10EF10008091C00080648093C000F0E2F093C6004E
:10EF20008091C00086FFFCCF8091C00080648093F8
:10EF3000C000CA5DDE4FE880F9800A811B81C6529D
:10EF4000D140BB27A12F902F8F2D0F940DF2CA5DBA
:10EF5000DE4F8881C652D1400F940DF2B0E2FB2EF5
:10EF6000F092C6008091C00086FFFCCF8091C00067
:10EF700080648093C0000DE30093C6008091C000C0
:10EF800086FFFCCF8091C00080648093C00010E2B7
:10EF90001093C6008091C00086FFFCCF8091C00016
:10EFA00080648093C0008BBEF3012791C65DDE4F65
:10EFB0002883CA52D140A22EBB24CC24DD2408943D
:10EFC000611C711C811C911C8BBEF3018791282E42
:10EFD0003324442455240894611C711C811C911C09
:10EFE0008BBEF3013791C55DDE4F3883CB52D140E4
:10EFF0000894611C711C811C911C8BBEF30147910C
:10F00000C45DDE4F4883CC52D140ADEFEA2EAFEF66
:10F01000FA2EAFEF0A2FAFEF1A2F6E0C7F1C801E57
:10F02000911E142D032DF22CEE24EA0CFB1C0C1D5A
:10F030001D1D0F940DF220E22093C6008091C000A8
:10F0400086FFFCCF8091C00080648093C000C65DC5
:10F05000DE4F8881CA52D1400F940DF230E23093D6
:10F06000C6008091C00086FFFCCF8091C000806404
:10F070008093C000C45DDE4F8881CC52D1400F9494
:10F080000DF240E24093C6008091C00086FFFCCFA5
:10F090008091C00080648093C000C55DDE4F888190
:10F0A000CB52D1400F940DF250E25093C6008091A4
:10F0B000C00086FFFCCF8091C00080648093C000B8
:10F0C0008FEFE8168FEFF80680E0080780E018075A
:10F0D00031F484E092EE60E00F94C2F1DFC0D80119
:10F0E000C7018070907CA070B0708050904CA040A0
:10F0F000B040D1F52FEF3FE340E050E0E222F322B1
:10F1000004231523CA5DDE4FA880B980CA80DB8046
:10F11000C652D140AE0CBF1CC01ED11EAA0CBB1CD7
:10F12000CC1CDD1C8EE092EE60E00F94C2F1BB2798
:10F13000A12F902F8F2D0F940DF28E2D0F940DF285
:10F1400030E23093C6008091C00086FFFCCF8091F2
:10F15000C00080648093C0004EE34093C60080915D
:10F16000C00086FFFCCF87C08EE09EEFA0E0B0E03D
:10F17000E822F9220A231B239CE0E91694E9F90608
:10F1800090E0090790E0190709F088C0C45DDE4FE0
:10F19000A881CC52D140EA2EFF2400E010E0102FCD
:10F1A0000F2DFE2CEE24C55DDE4FB881CB52D14031
:10F1B000EB0EF11C011D111DD601C501817090706F
:10F1C000A070B070DC0199278827E80EF91E0A1F8D
:10F1D0001B1F20EF30E040E050E0A222B322C42207
:10F1E000D52241E1AA0CBB1CCC1CDD1C4A95D1F7F1
:10F1F000EA0CFB1C0C1D1D1D81E090E0A0E0B0E0BE
:10F20000282239224A225B2235E1220C331C441C7D
:10F21000551C3A95D1F7E20CF31C041D151D57013E
:10F220006801AA0CBB1CCC1CDD1C85E192EE60E0E1
:10F230000F94C2F1C801AA27BB270F940DF2BB2778
:10F24000A12F902F8F2D0F940DF28E2D0F940DF274
:10F2500090E29093C6008091C00086FFFCCF809121
:10F26000C00080648093C000AEE3A093C60080918C
:10F27000C00086FFFCCF8091C00080648093C000F6
:10F28000C601AA27BB270F940DF2BB27AD2D9C2DDD
:10F290008B2D0F940DF28A2D0F940DF20F94DCF14B
:10F2A000CC5DDE4FE881F981C452D140F99709F471
:10F2B0004DCBF4E0EF2EF12C012D112D6E0C7F1CA7
:10F2C000801E911EF2CD83E093EE62E00F94F5F183
:10F2D0008AE192EE60E00F94C2F18091C00087FF56
:10F2E000FCCF1091C6001F751093C6008091C0001E
:10F2F00086FFFCCF8091C00080648093C0000F9493
:10F30000DCF1812F81548A3108F036C1163409F4BA
:10F3100095C0173490F4133409F44EC0143430F40B
:10F320001134F1F0123409F01DC130C0143409F465
:10F3300059C0153409F016C16BC01A3409F4C4C0A1
:10F340001B3438F4173409F48FC0183409F00AC19B
:10F35000A1C01B3409F4D2C01C3409F003C1E8C0B9
:10F360008FEF81B90DC082B1809582B980E090E0C5
:10F37000E0EDF7E03197F1F70196883C9105C1F790
:10F380008091C00087FFEFCF12B8EFC08FEF84B934
:10F390000DC085B1809585B980E090E0E0EDF7E0A3
:10F3A0003197F1F70196883C9105C1F78091C00033
:10F3B00087FFEFCF15B8D9C08FEF87B90DC088B1DF
:10F3C000809588B980E090E0E0EDF7E03197F1F7C3
:10F3D0000196883C9105C1F78091C00087FFEFCF6F
:10F3E00018B8C3C08FEF8AB90DC08BB180958BB9A7
:10F3F00080E090E0E0EDF7E03197F1F70196883C8E
:10F400009105C1F78091C00087FFEFCF1BB8ADC059
:10F410008FEF8DB90DC08EB180958EB980E090E0F0
:10F42000E0EDF7E03197F1F70196883C9105C1F7DF
:10F430008091C00087FFEFCF1EB897C08FEF80BBD1
:10F440000DC081B3809581BB80E090E0E0EDF7E0F6
:10F450003197F1F70196883C9105C1F78091C00082
:10F4600087FFEFCF11BA81C08FEF83BB0DC084B38C
:10F47000809584BB80E090E0E0EDF7E03197F1F714
:10F480000196883C9105C1F78091C00087FFEFCFBE
:10F4900014BA6BC08FEF809301010FC080910201FD
:10F4A00080958093020180E090E0E0EDF7E03197F5
:10F4B000F1F70196883C9105C1F78091C00087FF64
:10F4C000EDCF1092020151C08FEF809304010FC065
:10F4D0008091050180958093050180E090E0E0ED4A
:10F4E000F7E03197F1F70196883C9105C1F78091DB
:10F4F000C00087FFEDCF1092050137C08FEF8093DA
:10F5000007010FC08091080180958093080180E079
:10F5100090E0E0EDF7E03197F1F70196883C910536
:10F52000C1F78091C00087FFEDCF109208011DC088
:10F530008FEF80930A010FC080910B01809580931B
:10F540000B0180E090E0E0EDF7E03197F1F70196F4
:10F55000883C9105C1F78091C00087FFEDCF1092E4
:10F560000B0103C085E292EEEEC98091C00087FFD7
:10F57000FCCF8091C600EAC988E392EEE4C98CE131
:10F5800091EEE1C988249924933011F1943028F444
:10F59000913089F09230B8F408C0953061F195301F
:10F5A000F0F0963009F048C043C02B3109F042C951
:10F5B00091E06BE13FC96227C15DDE4F2883CF52E6
:10F5C000D14092E037C9B22FA0E0622793E032C960
:10F5D000822F90E0A82BB92B622794E02BC92E3004
:10F5E00009F039C3622795E0C05DDE4F19821882A9
:10F5F000C053D1401FC9E1E0F0E0EC0FFD1FC05D3A
:10F60000DE4F08811981C053D140E00FF11F2083E4
:10F610000F5F1F4FC05DDE4F19830883C053D14079
:10F6200062270A171B0709F005C9D80196E002C92D
:10F63000261709F010C303C0973009F0FBC87724E0
:10F640009981933109F412C19431C8F4963009F4C8
:10F65000D8C0973050F4923009F406C1933009F4C1
:10F660006DC0913009F059C253C0913109F477C08F
:10F67000923108F0BBC0903109F04FC2F5C098310B
:10F6800009F487C0993150F4953109F4EFC09531F0
:10F6900008F4C6C1963109F040C2C2C19A3109F4DA
:10F6A0006CC09A3108F491C09B3109F45BC09D3164
:10F6B00009F033C29D81903359F48F81882311F46E
:10F6C0009EE11CC0813011F091E018C098E916C08D
:10F6D000892F807591F0903539F4E0E0F0E089E011
:10F6E0008093570094910AC0983539F4E3E0F0E034
:10F6F00089E080935700949101C090E01A821B82A8
:10F700008D818C831D829E831F8227E030E009C299
:10F710001A8288E08B8381E48C8386E58D8382E581
:10F720008E8389E48F8383E5888780E589878FE5E9
:10F730008A8782E38B872BE030E0F3C18A818139AD
:10F7400041F0823941F0803911F48FE005C080E04A
:10F7500003C082E001C08AE01A828B8344C0772410
:10F76000739482C08D81882311F48EE12CC0813086
:10F7700011F081E028C088E926C01A82E1E0F0E0BB
:10F7800089E08093570084918B831C8224E030E0D1
:10F79000C8C18B81803589F48C81883039F4E2E0EE
:10F7A000F0E089E08093570084910DC0E0E0F0E044
:10F7B00089E080935700849106C0E3E0F0E089E09F
:10F7C0008093570084911A82DFCF8D81836C99E0FA
:10F7D000E1E0F0E0082E90935700E89507B600FCB2
:10F7E000FDCF1A821B8223E030E09BC180EC8A832C
:10F7F000CE5CDE4F188219821A821B82C253D1401E
:10F800008EC18A8190E0A0E0B0E0582F44273327D2
:10F8100022278B8190E0A0E0B0E0DC0199278827C7
:10F82000282B392B4A2B5B2B8D8190E0A0E0B0E098
:10F83000282B392B4A2B5B2B8C8190E0A0E0B0E089
:10F84000BA2FA92F982F8827282B392B4A2B5B2BCF
:10F85000220F331F441F551FC05EDE4F288339839C
:10F860004A835B83C052D1401A8259C13A81C95C34
:10F87000DE4F3883C753D140CA5CDE4F1882C6536F
:10F88000D1408B81C82EDD24CA5CDE4F488159816E
:10F89000C653D140C42AD52A933109F082C0CE5C28
:10F8A000DE4F88819981AA81BB81C253D1408050AB
:10F8B000904CA340B04030F583E0CE5CDE4FE88052
:10F8C000F9800A811B81C253D140F70100935B008C
:10F8D00080935700E89507B600FCFDCFCE5CDE4F65
:10F8E000088119812A813B81C253D14000501F4FAA
:10F8F0002F4F3F4FCE5CDE4F088319832A833B8313
:10F90000C253D140C05EDE4F488159816A817B81FC
:10F91000C052D140DE011B9631E08C9111962C91A2
:10F9200011971296C75CDE4F2883C953D140C85C3B
:10F93000DE4F1882C853D14090E0C85CDE4FE881AA
:10F94000F981C853D1408E2B9F2B0C01FA01609393
:10F950005B0030935700E89511244E5F5F4F6F4F67
:10F960007F4F0EEFE02E0FEFF02ECE0CDF1CC114F8
:10F97000D10499F685E0C05EDE4F088119812A81A5
:10F980003B81C052D140F80120935B008093570027
:10F99000E89507B600FCFDCF81E180935700E8951C
:10F9A00035C0C05EDE4F88819981AA81BB81C0527B
:10F9B000D140B695A795979587957C018601ABE0D8
:10F9C000AA2EB12CAC0EBD1E0BC0D5016D915D01F0
:10F9D000C7010F947FFE0894E11CF11C01501040F8
:10F9E0000115110591F7A60160E070E0440F551F65
:10F9F000661F771FC05EDE4FE880F9800A811B8199
:10FA0000C052D1404E0D5F1D601F711F1A82C05E33
:10FA1000DE4F488359836A837B83C052D1407FC0C5
:10FA2000FA80C55CDE4FF882CB53D140C65CDE4F16
:10FA30001882CA53D1408B81C82EDD24C65CDE4FAC
:10FA400008811981CA53D140C02AD12A1A828981DA
:10FA5000BE016D5F7F4F843121F59601C05EDE4FA0
:10FA6000E880F9800A811B81C052D1400BBFF701A9
:10FA700087919691DB018C9311969C936E5F7F4FDB
:10FA8000D801C7010296A11DB11DC05EDE4F88835B
:10FA90009983AA83BB83C052D14022503040F1F6F3
:10FAA00036C0C05EDE4F288139814A815B81C052F9
:10FAB000D1400894C108D108760100E010E0089414
:10FAC000C11CD11C0894E11CF11C011D111DE20E8A
:10FAD000F31E041F151F21BDBB27A52F942F832FB5
:10FAE00082BD2F5F3F4F4F4F5F4FF89A80B5DB01CC
:10FAF0008D93BD012E153F054007510761F7C05E8C
:10FB0000DE4F288339834A835B83C052D1409601FC
:10FB10002D5F3F4FFB01108204C080EC8A8322E0FE
:10FB200030E08BE18093C6008091C00086FFFCCF5F
:10FB30008091C00080648093C000C15DDE4FF88179
:10FB4000CF52D140F093C6008091C00086FFFCCF19
:10FB50008091C00080648093C000432F3093C60022
:10FB60008091C00086FFFCCF8091C00080648093AC
:10FB7000C000922F2093C6008091C00086FFFCCF6A
:10FB80008091C00080648093C0008EE08093C600A6
:10FB90008091C00086FFFCCF8091C000806480937C
:10FBA000C00065E1C15DDE4FE880CF52D1406E25D7
:10FBB00069276427FE01319610C090819093C6009A
:10FBC0008091C00086FFFCCF31968091C000806498
:10FBD0008093C0006927215030402115310569F715
:10FBE0006093C6008091C00086FFFCCF8091C0006A
:10FBF00080648093C00085B1805885B9772081F4F6
:10FC0000C15DDE4F0881CF52D1400F5FC15DDE4F35
:10FC10000883CF52D14090E0A0E0B0E00D941AF4F8
:10FC200027982F9880E090E020ED37E0F901319798
:10FC3000F1F7019684369105C9F700008091C00064
:10FC40008D7F8093C00081E180935700E895EE2777
:10FC5000FF270994FFCF90E00D941AF497FB092E2B
:10FC600007260AD077FD04D02ED006D000201AF443
:10FC7000709561957F4F0895F6F7909581959F4F08
:10FC80000895A1E21A2EAA1BBB1BFD010DC0AA1FDD
:10FC9000BB1FEE1FFF1FA217B307E407F50720F0F5
:10FCA000A21BB30BE40BF50B661F771F881F991F70
:10FCB0001A9469F760957095809590959B01AC01B9
:10FCC000BD01CF010895AA1BBB1B51E107C0AA1FAC
:10FCD000BB1FA617B70710F0A61BB70B881F991FED
:10FCE0005A95A9F780959095BC01CD010895F99991
:10FCF000FECF92BD81BDF89A992780B50895262F31
:10FD0000F999FECF1FBA92BD81BD20BD0FB6F89400
:0EFD1000FA9AF99A0FBE01960895F894FFCF63
:00000001FF
