:100000000C946E010C949F010C949F010C949F0121
:100010000C949F010C949F010C949F010C949F01E0
:100020000C949F010C949F010C949F010C949F01D0
:100030000C949F010C94560A0C949F010C949F0100
:100040000C949F010C949F010C949F010C949F01B0
:100050000C949F010C949F010C949F010C94160B1F
:100060000C949F010C94E00A0C94B60A0C949F0126
:100070000C949F010C949F010C949F010C949F0180
:100080000C949F010C949F010C949F010C949F0170
:100090000C949F010C949F010C949F010C94600B95
:1000A0000C949F010C949F010C949F010C949F0150
:1000B0000C949F010C949F010C949F010C949F0140
:1000C0000C949F010C949F010C949F010C949F0130
:1000D0000C949F010C949F010C949F010C949F0120
:1000E0000C949F010C94E8050C94F3010C94010608
:1000F0000C948A090C945C060C944E070C944B03E8
:100100000C942A030C94A3010C94A1010C945E0797
:100110000C9478070C942D030C9471070C944F07E2
:100120000C94ED050C9459030C947A060C942F064C
:100130000C9448060C941B060C944F030C948602F6
:100140000C940B060C945D030C9470060C94410304
:100150000C9422030C9407030C9413060C94F705DB
:100160000C9437030C9453030C94D0010C94660642
:100170000C940C030C94BC080C9401020C94BB0866
:100180000C943D030C9426030C9439020C94E00566
:100190000C94DF010C94A5070C9439060C945206BC
:1001A0000C941E030C94C90C0C9425060C94A2010B
:1001B0000C9445030C943303000021002400270015
:1001C0002A002D0030003300010100000401070166
:1001D0000A0100000A0B02090C0D0E0807030401B6
:1001E000000000000000000000000000000000000F
:1001F00000000000000000000000000000001211DC
:1002000010000000000000000000000000000000DE
:100210000000000000000000000020002300260075
:1002200029002C002F00320000010000030106010C
:1002300009010102102020080810204010204080F1
:10024000020102010804020101020408102040809A
:100250008040201008040201800402018040201028
:100260000804020108040201010204081020408071
:100270000102040810204080000022002500280010
:100280002B002E003100340002010000050108019E
:100290000B0105050505070508080808020202020A
:1002A0000A0A080804040404010101010101010112
:1002B0000303030303030303040707070C0C0C0CDD
:1002C0000C0C0C0C020202020606060606060606C6
:1002D0000B0B0B0B0B0B0B0B0200C90C11241FBEDD
:1002E000CFEFD1E2DEBFCDBF00E00CBF12E0A0E057
:1002F000B2E0E6EFF0E200E00BBF02C007900D9223
:10030000A236B107D9F723E0A2E6B2E001C01D9200
:10031000AE3FB207E1F711E0CEE6D1E000E006C063
:1003200021970109802FFE010E947110CD36D1075F
:1003300080E00807A9F70E94110D0C9479100C9425
:10034000000008950895AF92BF92CF92DF92EF928E
:10035000FF920F931F93CF93DF936C017B018B016F
:10036000040F151FEB015E01AE18BF08C017D107BF
:1003700059F06991D601ED91FC910190F081E02D49
:10038000C6011995892B79F7C501DF91CF911F918E
:100390000F91FF90EF90DF90CF90BF90AF900895B6
:1003A000FC01538D448D252F30E0842F90E0821B7B
:1003B000930B541710F0CF96089501970895FC0100
:1003C000918D828D981761F0A28DAE0FBF2FB11D58
:1003D0005D968C91928D9F5F9F73928F90E00895B0
:1003E0008FEF9FEF0895FC01918D828D981731F06A
:1003F000828DE80FF11D858D90E008958FEF9FEFBE
:100400000895FC01918D228D892F90E0805C9F4F93
:10041000821B91098F739927089589E493E00E94C4
:10042000010221E0892B09F420E0822F0895FC01CC
:10043000A48DA80FB92FB11DA35ABF4F2C91848D45
:1004400090E001968F739927848FA689B7892C93A2
:10045000A089B1898C91837080648C93938D848DF5
:10046000981306C00288F389E02D80818F7D8083F8
:100470000895EF92FF920F931F93CF93DF93EC01B8
:1004800081E0888F9B8D8C8D98131AC0E889F9893B
:10049000808185FF15C09FB7F894EE89FF8960833E
:1004A000E889F98980818370806480839FBF81E0BF
:1004B00090E0DF91CF911F910F91FF90EF90089501
:1004C000F62E0B8D10E00F5F1F4F0F731127E02EDC
:1004D0008C8D8E110CC00FB607FCFACFE889F98914
:1004E000808185FFF5CFCE010E941702F1CFEB8D01
:1004F000EC0FFD2FF11DE35AFF4FF0829FB7F894E8
:100500000B8FEA89FB8980818062CFCFCF93DF9305
:10051000EC01888D8823B9F0AA89BB89E889F9891B
:100520008C9185FD03C0808186FD0DC00FB607FC50
:10053000F7CF8C9185FFF2CF808185FFEDCFCE0183
:100540000E941702E9CFDF91CF91089580E090E0FB
:10055000892B29F00E940D0281110E94000080E089
:1005600090E0892B49F080E090E0892B29F00E94EF
:10057000000081110E94000080E090E0892B49F08A
:1005800080E090E0892B29F00E94000081110E94F8
:10059000000080E090E0892B49F080E090E0892B1A
:1005A00029F00E94000081110C9400000895282F6A
:1005B00030E0F901EE52FE4F9491F901EE5CFD4FEF
:1005C00044912E563D4FF9012491222309F435C060
:1005D000992311F191509231F8F4E92FF0E0882736
:1005E000EB50FD4F8F4F0C94711026032A03070325
:1005F0001E0322030C032D03330337033D03410382
:1006000045034B034F030C03530359035D038091D0
:1006100080008F7780938000E22FF0E0EE0FFF1FC5
:10062000E858FD4FA591B4918FB7F894EC91611102
:1006300048C040954E234C938FBF08958091800011
:100640008F7DE8CF80918000877FE4CF84B58F775E
:1006500084BDE2CF84B58F7DFBCF8091B0008F77D2
:100660008093B000D9CF8091B0008F7DF9CF809179
:1006700090008F7780939000CFCF809190008F7DF6
:10068000F9CF80919000877FF5CF8091A0008F7780
:100690008093A000C1CF8091A0008F7DF9CF809181
:1006A000A000877FF5CF809120018F778093200174
:1006B000B3CF809120018F7DF9CF80912001877F7A
:1006C000F5CF4E2BB8CF9091000289130DC0E8ED05
:1006D000F2E0E4919FEF90930002E230E1F038F411
:1006E000EE2381F0E13089F060E00C94D702E43031
:1006F00049F110F1E530C1F7909173009D7F90931F
:100700007300F2CF10926E00EFCF90916F009D7F3B
:1007100090936F00E9CF909170009D7F909370004F
:1007200091E09093B0009091B100987F9460909385
:10073000B1001092B300D8CF909171009D7F90933B
:100740007100D2CF909172009D7F90937200CCCFB8
:10075000CF93DF9390E0FC01EE5CFD4F24918E5629
:100760009D4FFC0184918823D1F090E0880F991F60
:10077000FC01E854FE4FA591B491FC01E858FD4FEF
:10078000C591D49161110EC09FB7F8948C91E22F5E
:10079000E0958E238C932881E223E8839FBFDF912D
:1007A000CF9108958FB7F894EC91E22BEC938FBF23
:1007B000F6CF0F931F93CF938C01809100028B3360
:1007C00031F08F3FA1F1CF911F910F910895E8ED86
:1007D000F2E0C491C7FDF7CF61E08BE30E94A8036C
:1007E000C1113FC0980150E040E068E478EE81E03C
:1007F00090E00E945210BA01A901415051096109CB
:10080000710985B5887F836085BD47BD8FEF9FEFF8
:10081000DC018093450390934603A0934703B09374
:10082000480380916E00826080936E00CCCF8BE392
:1008300080930002E8EDF2E0C4918C2FCF3F09F4E1
:10084000C2CFC23009F493C0B8F5CC2309F459C023
:10085000C13009F46EC087FDB6CF61E08BE30E9422
:10086000A803980150E040E0C23009F0DFC060E921
:1008700070ED83E090E00E945210BA01A90141504E
:100880005109610971098091B100887F836080936B
:10089000B1004093B3008FEF9FEFDC0180933D03E5
:1008A00090933E03A0933F03B09340038091700068
:1008B00082608093700087CFC43009F499C008F437
:1008C00078C0C53041F6109220011092210180912C
:1008D00021018860809321018091210181608093B2
:1008E0002101EDECF2E0E491F0E0EE0FFF1FE8589B
:1008F000FD4F85919491EDE6F2E0E491E0932903B8
:100900006BCF14BC15BC84B5826084BD85B5816095
:1009100085BDEDECF2E0E491F0E0EE0FFF1FE8584A
:10092000FD4F85919491EDE6F2E0E491E093300380
:1009300053CF1092800010928100809181008860D6
:100940008093810080918100816080938100EDEC33
:10095000F2E0E491F0E0EE0FFF1FE858FD4F8591C3
:100960009491EDE6F2E0E491E0932F0335CF1092FD
:10097000B0001092B1008091B00082608093B0000E
:100980008091B10081608093B100EDECF2E0E491E0
:10099000F0E0EE0FFF1FE858FD4F85919491909382
:1009A0002E0380932D03EDE6F2E0E491E0932C0317
:1009B00013CF109290001092910080919100886066
:1009C0008093910080919100816080939100EDEC83
:1009D000F2E0E491F0E0EE0FFF1FE858FD4F859143
:1009E0009491EDE6F2E0E491E0932B03C3E0F4CEC2
:1009F0001092A0001092A1008091A10088608093C5
:100A0000A1008091A10081608093A100EDECF2E053
:100A1000E491F0E0EE0FFF1FE858FD4F85919491AF
:100A2000EDE6F2E0E491E0932A03D6CE60E072E1D5
:100A30008AE790E00E945210DA01C9010197A109EA
:100A4000B109AC01C130D9F420918100287F216027
:100A50002093810090938900809388008FEF9FEF0F
:100A6000DC018093410390934203A0934303B0932E
:100A7000440380916F00826080936F00A4CEC330E6
:100A8000D9F420919100287F2160209391009093C8
:100A90009900809398008FEF9FEFDC0180933903DA
:100AA00090933A03A0933B03B0933C038091710071
:100AB00082608093710087CEC430D9F42091A10068
:100AC000287F21602093A1009093A9008093A80023
:100AD0008FEF9FEFDC018093350390933603A09353
:100AE0003703B09338038091720082608093720064
:100AF0006ACEC530D9F420912101287F216020934E
:100B0000210190932901809328018FEF9FEFDC0151
:100B10008093310390933203A0933303B093340353
:100B2000809173008260809373004DCEC23009F4CF
:100B3000B0CE3CF4CC2309F468CEC13009F043CEEA
:100B400089CFC43009F20CF4A2CFC530D1F23BCE2C
:100B50001F93CF93DF93182FEB0161E00E94A8034E
:100B6000209739F460E0812FDF91CF911F910C9491
:100B7000D702CF3FD10511F461E0F5CFE12FF0E0CE
:100B8000EE52FE4FE491E150E23108F0B3C0F0E0E4
:100B90008827E253FA4F8F4F0C947110E005E80557
:100BA000ED05F70501067A060B0613061B0625065A
:100BB0002F063906480652067A065C066606700657
:100BC00084B5806884BDC7BDDF91CF911F91089522
:100BD00084B5806284BDC8BDF7CF809180008068F5
:100BE00080938000D0938900C0938800EDCF8091DE
:100BF0008000806280938000D0938B00C0938A0035
:100C0000E3CF80918000886080938000D0938D0036
:100C1000C0938C00D9CF8091B00080688093B000E1
:100C2000C093B300D1CF8091B00080628093B000B8
:100C3000C093B400C9CF80919000806880939000E9
:100C4000D0939900C0939800BFCF809190008062AC
:100C500080939000D0939B00C0939A00B5CF809171
:100C60009000886080939000D0939D00C0939C007A
:100C7000ABCF8091A00080688093A0008091A000FD
:100C80008F7B8093A000D093A900C093A8009CCF35
:100C90008091A00080628093A000D093AB00C093AD
:100CA000AA0092CF8091A00088608093A000D0938A
:100CB000AD00C093AC0088CF809120018068809304
:100CC0002001D0932901C09328017ECF809120017B
:100CD000806280932001D0932B01C0932A0174CFAE
:100CE00080912001886080932001D0932D01C093D2
:100CF0002C016ACFC038D1050CF03ECF33CFCF9353
:100D0000DF93EB01BC0187E00E94A805BE0186E0ED
:100D10000E94A80570E060E085E0DF91CF910C941F
:100D2000A8053FB7F8948091190390911A03A091F8
:100D30001B03B0911C0326B5A89B05C02F3F19F0DB
:100D40000196A11DB11D3FBFBA2FA92F982F88274B
:100D5000BC01CD01620F711D811D911D42E0660F26
:100D6000771F881F991F4A95D1F708958F929F92F8
:100D7000AF92BF92CF92DF92EF92FF924B015C0154
:100D80000E9491066B017C010E9491066C197D09FD
:100D90008E099F09683E734081059105A8F321E003
:100DA000821A9108A108B10888EEC80E83E0D81E07
:100DB000E11CF11C81149104A104B10429F7FF90F6
:100DC000EF90DF90CF90BF90AF909F908F9008955D
:100DD0002091CA02260F3327331F21323105ECF44C
:100DE0002091EE02FC0190E080E0243069F082E086
:100DF0000895A091CA022191AC0146555D4FA40F00
:100E0000B52FB11D2C930196861798F38091CA02D5
:100E1000680F6093CA0280E0089581E008951092FF
:100E2000EE0281E08093F0021092EF0261E084E133
:100E30000E94D70261E085E10E94D702E9EBF0E071
:100E400080818E7F808380818D7F808388E4809302
:100E5000B80085E48093BC000895CF93DF9391E0C0
:100E60009093A9028823B9F0C091B800D091BA003C
:100E70008091BC008A7B8093BC0060E084E10E948A
:100E8000D70260E085E10E94D7020E940F07D0934D
:100E9000BA00C093B800DF91CF9108950895E09112
:100EA000240380912303E81730F4F0E0EC57FD4F62
:100EB000808190E008958FEF9FEF08959091240333
:100EC000809123032FEF3FEF981748F4E92FF0E0CC
:100ED000EC57FD4F208130E09F5F90932403C901C0
:100EE00008958091230390912403891B990B089501
:100EF000CF92DF92EF92FF920F931F93CF93DF93E6
:100F00007C01CB018A0120918302222389F0EB012D
:100F10006B01C40ED51ECC15DD0569F06991D701B2
:100F2000ED91FC910190F081E02DC7011995F3CF6F
:100F3000642F0E94E806C801DF91CF911F910F91A5
:100F4000FF90EF90DF90CF900895CF93DF931F92A3
:100F5000CDB7DEB76983209183022223F9F0209177
:100F60002103203258F021E030E0FC01338322835A
:100F700090E080E00F90DF91CF910895809122035F
:100F8000E82FF0E0ED59FD4F998190838F5F8093BA
:100F900022038093210381E090E0ECCF61E0CE0159
:100FA00001960E94E806F7CFCF92DF92EF92FF9270
:100FB0000F931F93CF93DF93FC01C48121E0209313
:100FC0008302C09362021092220310922103838550
:100FD000682B86EE93E00E94A507D0912103D132C1
:100FE00008F092C00E9491066B017C018091EE0294
:100FF000811165C082E08093EE0281E08093F0026F
:101000008FEF8093ED0210921203D0931103A3E6A9
:10101000B2E0E1EFF2E080E0D81385C01092130354
:1010200080911303CC0FC82BC09313038091EF0260
:10103000813009F07CC01092EF020E9491066B0192
:101040007C01809113038093BB008091A502909155
:10105000A602A091A702B091A802892B8A2B8B2B04
:1010600099F00E9491060091A5021091A60220918C
:10107000A7023091A8026C197D098E099F090617F5
:10108000170728073907E0F18091BC0083FDD9CF0D
:1010900085EC8093BC000E9491066B017C018091DD
:1010A000EE02823009F445C08091ED028F3F61F17C
:1010B0008091ED02803241F18091ED0225C0809156
:1010C000A5029091A602A091A702B091A802892B37
:1010D0008A2B8B2B09F48ACF0E9491060091A502DE
:1010E0001091A6022091A7023091A8026C197D09E7
:1010F0008E099F09061717072807390708F076CFCA
:101100008091A4020E942D071092220310922103C5
:1011100010928302DF91CF911F910F91FF90EF907A
:10112000DF90CF9008959D9191938F5F75CF85EE5D
:10113000B0CF8091A5029091A602A091A702B09194
:10114000A802892B8A2B8B2B09F4A9CF0E94910628
:101150000091A5021091A6022091A7023091A80249
:101160006C197D098E099F0906171707280739078B
:1011700008F095CFC5CF089590E080E008950F93D3
:101180001F93CF938C01C62F0E94D4076C2F6460ED
:10119000C8010E94D4076C2F6B7FC8010E94D4073E
:1011A00083EC90E00197F1F7CF911F910F91089593
:1011B0000F931F93CF93DF938C01D62FC42F607FA3
:1011C000642B0E94BF0880E1D89FB00111246C2BD2
:1011D000C801DF91CF911F910F910C94BF08CF935D
:1011E000DF93823028F09091F70398609093F70393
:1011F0008093FA0362E370E080E090E00E94B6061C
:101200006091FD0382EF93E00E94D40768EE73E0E3
:1012100080E090E00E94B60660E382EF93E00E94D7
:10122000BF08CBE4D6E4CE010197F1F760E382EF8B
:1012300093E00E94BF082197F1F760E382EF93E00B
:101240000E94BF0883E592E00197F1F760E282EF28
:1012500093E00E94BF086091F703606240E082EF74
:1012600093E00E94D80884E08093F80340E06CE0AB
:1012700082EF93E00E94D80840E061E082EF93E0C3
:101280000E94D808CBE3DFE1CE010197F1F782E0BD
:101290008093F90340E066E082EF93E00E94D80873
:1012A00040E062E082EF93E00E94D8082197F1F7D6
:1012B000DF91CF910895CF93DF9300D000D01F929C
:1012C0001F92CDB7DEB798E0E1E0F2E0DE011196C3
:1012D00001900D929A95E1F79091FA03981708F40E
:1012E0008FEF90E0880F991F21E030E02C0F3D1F19
:1012F000820F931FFC016081606840E082EF93E001
:1013000028960FB6F894DEBF0FBECDBFDF91CF9108
:101310000C94D80841E00E94D80881E090E008953C
:10132000FB0101900020E9F73197AF01461B570BF5
:10133000DC01ED91FC910280F381E02D19948F92F4
:101340009F92AF92BF92EF92FF920F931F93CF9312
:10135000DF93CDB7DEB7A1970FB6F894DEBF0FBE0F
:10136000CDBF7C01FA01CB0119A2223008F42AE09A
:101370008E010F5D1F4F822E912CB12CA12CBF012D
:10138000A50194010E943010F901CA016A300CF5E0
:10139000605DD8016E938D01232B242B252B79F7CB
:1013A00090E080E0109721F0BD01C7010E949009F4
:1013B000A1960FB6F894DEBF0FBECDBFDF91CF91DF
:1013C0001F910F91FF90EF90BF90AF909F908F90E3
:1013D0000895695CDECFCF92DF92EF92FF920F9378
:1013E0001F93CF93DF93EC016A017B01E881F981C0
:1013F0000190F081E02D6DE219958C01442755276D
:10140000BA014C195D096E097F092AE0CE010E94DC
:101410009F09800F911FDF91CF911F910F91FF9036
:10142000EF90DF90CF900895AB01770F660B770BAD
:1014300077FD0C94EB092AE00C949F0985ED8093CD
:10144000BC008091A5029091A602A091A702B09144
:10145000A8020796A11DB11D23E0B695A795979503
:1014600087952A95D1F72091BC0024FD03C01092E6
:10147000EE0208954091A5025091A6026091A70244
:101480007091A802452B462B472B69F30097A105C5
:10149000B10541F025E32A95F1F700000197A10974
:1014A000B109E1CF8091A4020C942D071F920F92F5
:1014B0000FB60F9211240BB60F922F933F934F93B9
:1014C0005F936F937F938F939F93AF93BF93EF93AC
:1014D000FF9380913D0390913E03A0913F03B09113
:1014E0004003892B8A2B8B2BE1F190912C03E09107
:1014F0002D03F0912E0380818927808380913D0305
:1015000090913E03A0913F03B09140031816190635
:101510001A061B069CF480913D0390913E03A09116
:101520003F03B09140030197A109B10980933D03A6
:1015300090933E03A0933F03B0934003FF91EF913C
:10154000BF91AF919F918F917F916F915F914F91DB
:101550003F912F910F900BBE0F900FBE0F901F90D9
:101560001895809100020E946303E8CF1F920F92AA
:101570000FB60F9211240BB60F922F933F934F93F8
:101580005F936F937F938F939F93AF93BF93EF93EB
:10159000FF9389E493E00E941702FF91EF91BF91BE
:1015A000AF919F918F917F916F915F914F913F91FB
:1015B0002F910F900BBE0F900FBE0F901F9018959C
:1015C0001F920F920FB60F9211240BB60F922F930A
:1015D0008F939F93EF93FF93E0915903F0915A03F8
:1015E0008081E0915F03F091600382FD1DC09081D6
:1015F000809162038F5F8F7320916303821741F0A4
:10160000E0916203F0E0E75BFC4F958F809362030B
:10161000FF91EF919F918F912F910F900BBE0F90A3
:101620000FBE0F901F9018958081F2CF1F920F92DE
:101630000FB60F9211242F933F938F939F93AF93E5
:10164000BF938091150390911603A0911703B09159
:1016500018033091140323E0230F2D3758F501961A
:10166000A11DB11D209314038093150390931603BD
:10167000A0931703B09318038091190390911A0354
:10168000A0911B03B0911C030196A11DB11D809375
:10169000190390931A03A0931B03B0931C03BF91EB
:1016A000AF919F918F913F912F910F900FBE0F900F
:1016B0001F90189526E8230F0296A11DB11DD2CFC9
:1016C0001F920F920FB60F9211240BB60F922F9309
:1016D0003F934F935F936F937F938F939F93AF93BA
:1016E000BF93EF93FF938091B900887F803609F410
:1016F0004DC008F040C0883209F4A9C028F58031F7
:1017000009F49DC0C8F4882309F4FBC0883009F4AB
:1017100096C0FF91EF91BF91AF919F918F917F9173
:101720006F915F914F913F912F910F900BBE0F9052
:101730000FBE0F901F901895883109F488C0803231
:1017400041F78093ED0214C0803409F49DC040F449
:101750008033B9F38833E9F68093ED0285ECB0C0AD
:10176000803509F485C0883509F496C0883489F637
:101770000E941E0ACECF883909F48CC038F588370C
:1017800029F050F4883611F0803719F683E0809301
:10179000EE021092EC0257C0883809F47BC0803901
:1017A00019F0803809F0B5CF8091EC02803208F052
:1017B00071C0E091EC0281E08E0F8093EC02809189
:1017C000BB00F0E0E453FD4F80833DC0803B39F027
:1017D000E0F4803A09F479C0883A09F09ACF84E0BD
:1017E0008093EE021092CB021092CA02E0911F0386
:1017F000F091200319958091CA0281110FC081E0F8
:101800008093CA021092AA0209C0803C09F4A6CFB4
:10181000883C09F4A3CF883B09F07BCFE091CB0251
:1018200081E08E0F8093CB02F0E0E655FD4F808182
:101830008093BB009091CB028091CA0229C0809115
:1018400013038093BB0085EC8093BC0062CF909122
:10185000120380911103981758F5E091120381E06B
:101860008E0F80931203F0E0EF50FD4F8081E9CF9F
:10187000E091120381E08E0F809312038091BB00F0
:10188000F0E0EF50FD4F808390911203809111039F
:101890009817C8F285E8D8CFE091120381E08E0F47
:1018A000809312038091BB00F0E0EF50FD4F8083E6
:1018B0008091F00281115CCF81E08093EF0284EA95
:1018C0008093BC001092EE0224CF85EC8093BC0084
:1018D0001092EE028091EC02803230F4E091EC0242
:1018E000F0E0E453FD4F10826091EC0270E0E09173
:1018F0001D03F0911E038CEC92E019951092EC02FE
:1019000008CF1092ED0234CFCF92DF92EF92FF9288
:101910000F931F93E82FF92F05C0015011092109DA
:10192000310961F1908196239417B9F305C00150F4
:1019300011092109310911F1908196239413F7CFF0
:10194000C12CD12CE12CF12C0AC08FEFC81AD80A77
:10195000E80AF80A0C151D052E053F0579F080816F
:101960008623841791F36C2D7D2D8E2D9F2D1F9135
:101970000F91FF90EF90DF90CF90089560E070E0BE
:1019800080E090E01F910F91FF90EF90DF90CF905B
:101990000895E9E4F3E01382128288EE93E0A0E078
:1019A000B0E084839583A683B7832DE032E0318352
:1019B000208325EC30E03587248724EC30E037871E
:1019C000268720EC30E0318B208B21EC30E0338B0C
:1019D000228B22EC30E0358B248B26EC30E0378BE9
:1019E000268B118E128E138E148EE6EEF3E0138288
:1019F000128284839583A683B7838FE192E09183DB
:101A00008083E2EFF3E01382128281E392E091831C
:101A1000808387E2848380E1818782E082871386E6
:101A20000895789484B5826084BD84B5816084BD56
:101A300085B5826085BD85B5816085BD80916E006C
:101A4000816080936E00109281008091810082609D
:101A500080938100809181008160809381008091DA
:101A600080008160809380008091B10084608093C9
:101A7000B1008091B00081608093B00080919100AE
:101A800082608093910080919100816080939100A9
:101A9000809190008160809390008091A10082608D
:101AA0008093A1008091A10081608093A10080912A
:101AB000A00081608093A0008091210182608093CA
:101AC0002101809121018160809321018091200179
:101AD00081608093200180917A00846080937A00F5
:101AE00080917A00826080937A0080917A00816090
:101AF00080937A0080917A00806880937A001092B7
:101B0000C100E0915903F0915A0382E08083E09193
:101B10005503F09156031082E0915703F09158035A
:101B20008FEC808310926103E0915D03F0915E037E
:101B300086E08083E0915B03F0915C0380818061AB
:101B40008083E0915B03F0915C03808188608083F7
:101B5000E0915B03F0915C03808180688083E09179
:101B60005B03F0915C0380818F7D808382E00E9423
:101B7000EF08109224031092230310922203109274
:101B800021030E940F0781EA91E090932003809344
:101B90001F0382EA91E090931E0380931D0310922D
:101BA000F7038091FC030E94EF0840E061E082EFC0
:101BB00093E00E94D8088BE39FE10197F1F788E05A
:101BC0008093FD0360E082EF93E00E94D40761E020
:101BD00089E00E94A80360E08AE00E94A80361E017
:101BE00087E00E94A80361E086E00E94A80361E00C
:101BF00085E00E94A803C3E0D0E093E2E92EF12C37
:101C00002CE3C22E22E0D22E3CE9A32E32E0B32EEA
:101C100060E089E00E94D702CE010197F1F761E010
:101C200089E00E94D702C7010197F1F760E089E0DF
:101C30000E94D702F6016491F5018491E82FF0E04B
:101C4000EE0FFF1FE85EFD4F8591949100E412E4D2
:101C50002FE030E0462F0E94840C6115710581054C
:101C6000910529F06F5F7F4F8F4F9F4F9F700E94AC
:101C7000370F2B013C0126E933E44BE05DE30E9482
:101C80009B0F20E030E040E05FE30E949B0F0E944A
:101C9000FF0E70932803609327032EE338EE49E587
:101CA0005CE3C301B2010E949B0F20E030E040E002
:101CB0005FE30E949B0F0E94FF0E709326036093C8
:101CC000250369E372E089E493E00E949009409162
:101CD000270350912803052E000C660B770B77FF26
:101CE00068C089E493E00E94EB096AE472E089E449
:101CF00093E00E94900980E00E945B096DE472E02D
:101D000082EF93E00E94900960912703709128036D
:101D100082EF93E00E94140A68E572E082EF93E09C
:101D20000E9490096AE070E080E090E00E94B606B0
:101D300081E00E945B096DE472E082EF93E00E9413
:101D40009009609125037091260382EF93E00E9431
:101D5000140A6CE572E082EF93E00E9490096AE059
:101D600070E080E090E00E94B60680912703909199
:101D70002803893091051CF570E060E08FEF90E05A
:101D80000E947F068CEA9DE00E94D90364E670E021
:101D900080E090E00E94B60684EC99E00E94D903AE
:101DA00064E670E080E090E00E94B6060E94A60221
:101DB0002FCF2AE089E493E00E949F0996CF8D30CF
:101DC0009105A4F46FEF70E08FEF90E00E947F0622
:101DD0006AEF70E080E090E00E94B6068BE30E941C
:101DE00063036AEF70E080E090E0DECF6FEF70E0B9
:101DF000429714F070E060E090E080E0E7CF0E944E
:101E0000060F6894B1110C94950F08950E947A0FF3
:101E100088F09F5798F0B92F9927B751B0F0E1F0AB
:101E2000660F771F881F991F1AF0BA95C9F714C05B
:101E3000B13091F00E94940FB1E008950C94940F8A
:101E4000672F782F8827B85F39F0B93FCCF3869594
:101E500077956795B395D9F73EF4909580957095F1
:101E600061957F4F8F4F9F4F0895E89409C097FB6E
:101E70003EF490958095709561957F4F8F4F9F4F61
:101E80009923A9F0F92F96E9BB279395F6958795A5
:101E900077956795B795F111F8CFFAF4BB0F11F468
:101EA00060FF1BC06F5F7F4F8F4F9F4F16C088230F
:101EB00011F096E911C0772321F09EE8872F762F45
:101EC00005C0662371F096E8862F70E060E02AF086
:101ED0009A95660F771F881FDAF7880F9695879572
:101EE00097F9089557FD9058440F551F59F05F3FDB
:101EF00071F04795880F97FB991F61F09F3F79F02C
:101F000087950895121613061406551FF2CF4695AD
:101F1000F1DF08C0161617061806991FF1CF86952F
:101F20007105610508940895E894BB276627772713
:101F3000CB0197F908950E94AE0F0C941F100E94D8
:101F4000111038F00E94181020F0952311F00C9415
:101F500008100C940E1011240C94950F0E94720F0F
:101F600070F3959FC1F3950F50E0551F629FF001EC
:101F7000729FBB27F00DB11D639FAA27F00DB11D05
:101F8000AA1F649F6627B00DA11D661F829F22278E
:101F9000B00DA11D621F739FB00DA11D621F839F15
:101FA000A00D611D221F749F3327A00D611D231FEB
:101FB000849F600D211D822F762F6A2F11249F5739
:101FC00050409AF0F1F088234AF0EE0FFF1FBB1F3C
:101FD000661F771F881F91505040A9F79E3F5105FB
:101FE00080F00C9408100C94950F5F3FE4F3983E3A
:101FF000D4F3869577956795B795F795E7959F5FA5
:10200000C1F7FE2B880F911D9695879597F9089536
:1020100097F99F6780E870E060E008959FEF80EC9B
:10202000089500240A94161617061806090608953E
:1020300000240A9412161306140605060895092EA4
:102040000394000C11F4882352F0BB0F40F4BF2B13
:1020500011F460FF04C06F5F7F4F8F4F9F4F089553
:10206000A1E21A2EAA1BBB1BFD010DC0AA1FBB1F9C
:10207000EE1FFF1FA217B307E407F50720F0A21B0E
:10208000B30BE40BF50B661F771F881F991F1A947B
:1020900069F760957095809590959B01AC01BD01A5
:1020A000CF010895052E97FB1EF400940E9469103D
:1020B00057FD07D00E94301007FC03D04EF40C945B
:1020C000691050954095309521953F4F4F4F5F4F88
:1020D000089590958095709561957F4F8F4F9F4F94
:1020E0000895EE0FFF1F881F8BBF0790F691E02D1C
:0620F0001994F894FFCFE3
:1020F600FF0000400014005400000000003902A355
:1021060001D00186020102DF01F30100000000A5F3
:10211600077807BC084E0771075E074F07000000E7
:10212600008A09A301BC08BB084F646C65676C6F25
:102136007363207720636D3A20000D0A004F646CAC
:1021460065676C6F73633A0020636D0020696E6388
:0221560068001F
:00000001FF
